:100000000C94AC000C94EB020C94D4000C94D4002F
:100010000C94D4000C94D4000C94D4000C94D40010
:100020000C94D4000C94D4000C94D4000C94D40000
:100030000C94D4000C94D4000C94D4000C94D400F0
:100040000C9430020C94D4000C94A0020C947A020C
:100050000C94D4000C94D4000C94D4000C94D400D0
:100060000C94D4000C94D40000000000250028005B
:100070002B0000000000240027002A0005010906CB
:10008000A101050719E029E715002501750195086B
:100090008102950675082565190029658100C0183B
:1000A000035500730062004B006500790062006F29
:1000B000006100720064002003720061006E006342
:1000C00000690064006200610063006F006E002E32
:1000D0000063006F006D000403090409022200019F
:1000E0000100A03209040000010300000009210101
:1000F0000100012223000705810308000A120110F4
:100100000100000008424231E1000101020001004B
:100110000000002300260029000404040404040451
:1001200004020202020202030303030303010204A6
:100130000810204080010204081020010204081069
:100140002000000008000201000003040700000076
:100150000000000000000C0411241FBECFEFD4E00B
:10016000DEBFCDBF11E0A0E0B1E0E4E4FEE002C0FC
:1001700005900D92AE36B107D9F722E0AEE6B1E0B8
:1001800001C01D92A437B207E1F710E0CCEAD0E03D
:1001900004C02197FE010E941A07CB3AD107C9F784
:1001A0000E9462040C9420070C940000AF92BF924E
:1001B000CF92DF92EF92FF920F931F93CF93DF9333
:1001C0006C017B018B01040F151FEB015E01AE1862
:1001D000BF08C017D10759F06991D601ED91FC9184
:1001E0000190F081E02DC6010995892B79F7C501B1
:1001F000DF91CF911F910F91FF90EF90DF90CF9003
:10020000BF90AF900895FC01538D448D252F30E0B1
:10021000842F90E0821B930B541710F0CF96089513
:1002200001970895FC01918D828D981761F0A28D40
:10023000AE0FBF2FB11D5D968C91928D9F5F9F7306
:10024000928F90E008958FEF9FEF0895FC01918DBC
:10025000828D981731F0828DE80FF11D858D90E029
:1002600008958FEF9FEF0895FC01918D228D892FC6
:1002700090E0805C9F4F821B91098F7399270895AE
:1002800089E991E00E94340121E0892B09F420E002
:10029000822F089580E090E0892B29F00E94400190
:1002A00081110C9400000895FC01A48DA80FB92FB2
:1002B000B11DA35ABF4F2C91848D90E001968F738E
:1002C0009927848FA689B7892C93A089B1898C91AD
:1002D000837080648C93938D848D981306C00288FC
:1002E000F389E02D80818F7D80830895EF92FF92C6
:1002F0000F931F93CF93DF93EC0181E0888F9B8D49
:100300008C8D98131AC0E889F989808185FF15C002
:100310009FB7F894EE89FF896083E889F989808125
:100320008370806480839FBF81E090E0DF91CF91F4
:100330001F910F91FF90EF900895F62E0B8D10E016
:100340000F5F1F4F0F731127E02E8C8D8E110CC085
:100350000FB607FCFACFE889F989808185FFF5CFD0
:10036000CE010E945401F1CFEB8DEC0FFD2FF11D5A
:10037000E35AFF4FF0829FB7F8940B8FEA89FB890D
:1003800080818062CFCFCF93DF93EC01888D88236B
:10039000B9F0AA89BB89E889F9898C9185FD03C0E8
:1003A000808186FD0DC00FB607FCF7CF8C9185FFCD
:1003B000F2CF808185FFEDCFCE010E945401E9CFBD
:1003C000DF91CF9108958E3008F08E508770806451
:1003D00080937C0080917A00806480937A00809181
:1003E0007A0086FDFCCF8091780090917900089585
:1003F000CF93C62F20914C0224FF19C020914D02AB
:1004000038E8232720934D022C2FFC01AEE4B2E004
:1004100081918D9321501216DCF36C2F8EE492E0C3
:100420000E94E702CC5FC0934C02CF9108952AE569
:1004300020934C02E9CFE6E3F2E096E0882321F036
:100440002181821301C01182915031969111F6CF12
:1004500067E086E392E00E94F80181E090E0089571
:100460001F920F920FB60F9211242F933F938F93E9
:100470009F93AF93BF938091950190919601A09126
:100480009701B09198013091940123E0230F2D370B
:1004900058F50196A11DB11D2093940180939501FB
:1004A00090939601A0939701B09398018091900149
:1004B00090919101A0919201B09193010196A11D9B
:1004C000B11D8093900190939101A0939201B093FC
:1004D0009301BF91AF919F918F913F912F910F9079
:1004E0000FBE0F901F90189526E8230F0296A11DAE
:1004F000B11DD2CF1F920F920FB60F9211242F93DE
:100500003F934F935F936F937F938F939F93AF939B
:10051000BF93EF93FF9389E991E00E945401FF910B
:10052000EF91BF91AF919F918F917F916F915F916B
:100530004F913F912F910F900FBE0F901F901895E4
:100540001F920F920FB60F9211242F938F939F93A8
:10055000EF93FF93E091A901F091AA018081E091CE
:10056000AF01F091B00182FD1BC090818091B2017A
:100570008F5F8F732091B301821741F0E091B20138
:10058000F0E0E756FE4F958F8093B201FF91EF9117
:100590009F918F912F910F900FBE0F901F901895E4
:1005A0008081F4CFA82FB92F80E090E041E050EA9D
:1005B000609530E009C02D9182279795879510F0BE
:1005C00084279527305EC8F36F5FA8F30895EADFAC
:1005D0008D939D930895CF93CFB7CF93DF93C3951A
:1005E0004C9BE9F74C9B0BC04C9B09C04C9B07C034
:1005F0004C9B05C04C9B03C04C9B01C08BC06F93B0
:10060000C0915A02DD27C25ADD4F2F9365E54C9BFE
:1006100003C02F916F91E6CF0F931F934F9320E06C
:1006200040E15F9309B1047104FB27F93F9350E067
:100630003BE039C0147140642F77012F5F5F1EC00B
:10064000406819B114712F7752501FC0406409B12E
:100650002F770471D1F15F5F00C023C0406219B1F0
:100660002F77147191F15F5F00C025C004711027CE
:10067000515012F45D5F0000115027952C3F19B1C5
:10068000C8F614710127015027952C3FC8F6422760
:10069000499309B1047110274F73115027952C3FCE
:1006A000A8F64695469519B1147179F001270150C5
:1006B00027952C3F98F66B5A60F3315009B1B0F68C
:1006C00000C011E01CBB002719C03B503195C31B73
:1006D000D04011E01CBB0881033C09F10B34F9F058
:1006E000209158021981110F1213EDCF4A81441F36
:1006F000093651F10D3211F0013E29F700935D02E8
:100700003F915F914F911F910F912F916F91CCB3BA
:10071000C0FD65CFDF91CF91CFBFCF9118952091CC
:100720005D02222369F310915B02112391F53430AD
:1007300092F130935B022093590210915A023BE0F0
:10074000311B30935A0227C000915B0201300CF537
:100750000AE54F7049F43091010134FD1DC000934A
:100760000101C1E4D2E01CC030914C0234FD14C040
:1007700000934C02CDE4D2E013C0052710E000C086
:1007800000000BB91AC0052710E0221F1DC010E0A1
:1007900021C04AE502C032ED432FC4E1D0E032E08F
:1007A0001AB114615C9A0BB11AB954E120E865E3FF
:1007B00020FF05270BB9279517951C3FF0F6669586
:1007C000B8F7B1F720FF05270BB9279517951C3F00
:1007D000D0F62795179517FF052700001C3F0BB98A
:1007E000B0F629913A9519F70B7E10915C02110F22
:1007F000C651D0400BB911F01093580211E01CBB48
:1008000000611AB11B7E402F4B7E54E05A95F1F7E0
:100810000BB91AB94BB974CFE9E9F1E0138212822E
:1008200088EE93E0A0E0B0E084839583A683B7834D
:1008300080E691E09183808385EC90E095878487C2
:1008400084EC90E09787868780EC90E0918B808B9A
:1008500081EC90E0938B828B82EC90E0958B848B83
:1008600086EC90E0978B868B118E128E138E148EF1
:100870001BB88AB18B6E8AB9F89455985D982FEFA2
:1008800084E39CE0215080409040E1F700C00000EC
:10089000559A5D9AE9E6F0E0808182608083E89A6B
:1008A000ECE4F2E08BE481838AE580837894EDE3E5
:1008B000F2E084E0DF011D928A95E9F764E0CF0160
:1008C0000C94F801789484B5826084BD84B581600D
:1008D00084BD85B5826085BD85B5816085BD80910B
:1008E0006E00816080936E00109281008091810083
:1008F000826080938100809181008160809381007B
:10090000809180008160809380008091B10084603C
:100910008093B1008091B00081608093B00080919D
:100920007A00846080937A0080917A00826080935C
:100930007A0080917A00816080937A0080917A00B9
:10094000806880937A001092C10080916E008E7F43
:1009500080936E00A2E7B1E030E020E04FEF50E07E
:10096000293031055CF5F901EE0FFF1FE25CFE4F07
:10097000808191819927FC01E35DFE4F6491875E40
:100980009E4FFC0184918823C9F090E0880F991F45
:10099000FC01EE58FF4FC591D491FC01E859FF4F7F
:1009A000059114919FB7F8948881E62FE0958E23E6
:1009B0008883E8018881E823E8839FBF4D935D9396
:1009C0002F5F3F4F2F30310509F0CACFE091A901C9
:1009D000F091AA0182E08083E091A501F091A60147
:1009E0001082E091A701F091A80180E1808310922C
:1009F000B101E091AD01F091AE0186E08083E0911C
:100A0000AB01F091AC01808180618083E091AB010A
:100A1000F091AC01808188608083E091AB01F0911E
:100A2000AC01808180688083E091AB01F091AC01E2
:100A300080818F7D80837CE7672E70E0772EEDEEDE
:100A40008E2EE0E09E2E47EB242E40E0342E57ED14
:100A5000452E50E0552E6DE3C62E62E0D62E8091D5
:100A60005B02835087FD2AC0909159029D3221F587
:100A7000883011F580915A02ECE0F0E0E81BF109B2
:100A8000E25AFD4F83EC809341028AE58093010195
:100A900010926F018081807609F48BC0D092710131
:100AA000C092700180E09781911104C096819817DF
:100AB00008F4892F8093000110925B02809101015C
:100AC00084FF3DC0809100018F3FC9F1C82F89305C
:100AD00008F0C8E0982F9C1B909300019091410270
:100AE00028E89227909341028823E1F080917001D9
:100AF0009091710120916F0126FFD0C0A2E4B2E075
:100B0000FC012C2F34913D9331962150D9F72FEFD2
:100B10002C0F30E02F5F3F4F820F931F9093710196
:100B2000809370016C2F82E492E00E94E702CC5F18
:100B3000CC3019F08FEF80930001C093010184E164
:100B400099B1947131F48150D9F710925C021092EE
:100B500058023EE3A32E31E0B32EC2E7D1E010E00D
:100B600000E0F501819191915F01093011050CF0D0
:100B7000F5C0AC015527FA01EF5BFE4F9491FA01E5
:100B8000E35DFE4F2491FA01E75EFE4FE491E1112F
:100B90008EC081E00E94E3018D509E4F7801EE0CE3
:100BA000FF1C873E934008F0E4C0F701E05EFE4F73
:100BB000ECC0228110924A02918191110AC01092D8
:100BC0004B022AE432E082E03093710120937001FD
:100BD0006ACF953029F420935C022AE432E0F4CF06
:100BE000963009F044C09381913059F48DEF90E034
:100BF000909371018093700182E190E490936F0172
:100C000052CF923041F48BED90E09093710180933C
:100C1000700182E2F2CF9330D1F4211106C05092DC
:100C200071014092700184E0E8CF213031F43092BC
:100C300071012092700180E2E0CF2230F1F68FE95D
:100C400090E0909371018093700188E1D6CF91324A
:100C500031F4909271018092700189E0CECF92328E
:100C600061F6709271016092700183E2C6CF983094
:100C700071F0993019F420936E01AFCF9A3059F08A
:100C80009B3009F0AACF9BE490934D02A6CF2EE6AD
:100C900031E081E099CF2AE432E0FBCFDC01E2E4ED
:100CA000F2E02C2F3D9131932150E1F730CF992381
:100CB00051F0933009F43BC080F5913009F43DC008
:100CC000923009F43EC0F0E0EE0FFF1FE15FFE4FEF
:100CD000A591B491EC912E2309F45BCF8881998181
:100CE0008F3F910531F00E941B028FEF90E09983B6
:100CF00088830F5F1F4F22960F30110509F031CF07
:100D000080E090E0892B09F4AACE0E94400188235C
:100D100009F499CE0E94000096CE9730A9F0983041
:100D2000C9F0943081F6809180008F7D03C080915E
:100D300080008F7780938000C6CF84B58F7784BD85
:100D4000C2CF84B58F7DFBCF8091B0008F77809329
:100D5000B000B9CF8091B0008F7DF9CF0E94E30140
:100D600064EF71E00E94F2066130710509F4B6CFBC
:100D700010CF85E00E94E3018D509E4FF701EE5F9A
:100D8000FE4F873E934008F410CFE080F1808881C9
:100D900099818E159F0509F4ACCF8F3F910511F015
:100DA0000E941B022E2DA7E3B2E0FD0181912817BE
:100DB00061F0CE16DF06D1F790E080E03D91311171
:100DC0000AC08A5C9D4FFC01218367E086E392E0C4
:100DD0000E94F80104C001968630910579F7F982E6
:100DE000E88287CF97FB072E16F4009407D077FD93
:100DF00009D00E94060707FC05D03EF49095819526
:100E00009F4F0895709561957F4F0895AA1BBB1B56
:100E100051E107C0AA1FBB1FA617B70710F0A61BFA
:100E2000B70B881F991F5A95A9F780959095BC011B
:100E3000CD010895EE0FFF1F0590F491E02D099468
:040E4000F894FFCF54
:100E4400FF5A5200500051004F000C0018000D00D2
:100E54000E00280029002C000F0012001C000B00BB
:100E64005200500051004F0012001C000B000F00F4
:100E740057002A0056004D004E004B004A00030064
:100E840006000700080009000A000B000C000D0012
:100E94000000020003000400060007000000000038
:0E0EA4007601D6000301C301340112012601BC
:103800000C94341C0C94511C0C94511C0C94511CA1
:103810000C94511C0C94511C0C94511C0C94511C74
:103820000C94511C0C94511C0C94511C0C94511C64
:103830000C94511C0C94511C0C94511C0C94511C54
:103840000C94511C0C94511C0C94511C0C94511C44
:103850000C94511C0C94511C0C94511C0C94511C34
:103860000C94511C0C94511C11241FBECFEFD4E0BA
:10387000DEBFCDBF11E0A0E0B1E0E4EAFFE302C0AB
:1038800005900D92A230B107D9F712E0A2E0B1E0A5
:1038900001C01D92AD30B107E1F70E94361D0C94B6
:1038A000D01F0C94001C982F9595959595959595FE
:1038B000905D8F708A307CF0282F295A8091C0004B
:1038C00085FFFCCF9093C6008091C00085FFFCCFA0
:1038D0002093C6000895282F205DF0CF982F809167
:1038E000C00085FFFCCF9093C6000895EF92FF9231
:1038F0000F931F93EE24FF2487018091C00087FD62
:1039000017C00894E11CF11C011D111D81E4E8168B
:1039100082E4F8068FE0080780E0180770F3E09172
:103920000401F091050109958091C00087FFE9CF5E
:103930008091C6001F910F91FF90EF9008950E9413
:10394000761C982F8091C00085FFFCCF9093C60015
:1039500091362CF490330CF09053892F089597559D
:10396000892F08951F930E949F1C182F0E949F1C4F
:103970001295107F810F1F910895882351F0982F81
:1039800091508091C00087FFFCCF8091C6009923A1
:10399000B9F708951F93182F0E94761C803249F0C2
:1039A000809103018F5F809303018530C1F01F91E7
:1039B00008958091C00085FFFCCF84E18093C6000C
:1039C0008091C00085FFFCCF1093C6008091C0009D
:1039D00085FFFCCF80E18093C6001F910895E091A0
:1039E0000401F091050109951F9108950E94761C2C
:1039F000803241F0809103018F5F80930301853015
:103A000081F008958091C00085FFFCCF84E1809310
:103A1000C6008091C00085FFFCCF80E18093C60086
:103A20000895E0910401F09105010995089510921F
:103A30000A028823D1F090E040E951E02D9A28EE67
:103A400033E0FA013197F1F721503040D1F72D984A
:103A500028EE33E0FA013197F1F721503040D1F7E9
:103A60009F5F981758F380930A0208953F924F92F0
:103A70005F926F927F928F929F92AF92BF92CF92FE
:103A8000DF92EF92FF920F931F93CF93DF9300008B
:103A900083E38093C4001092C50088E18093C10045
:103AA00086E08093C2005098589A259A81E00E943F
:103AB000171D44E1F42E3EE1E32E24E9D22E96E0D8
:103AC000C92E80E1B82EAA24A39401E4902E16E515
:103AD000812EB2E57B2EA0E26A2EF9E45F2EE3E5AB
:103AE0004E2E70E5372E0E94761C8033B1F1813363
:103AF00009F441C0803409F479C0813409F48CC0E0
:103B0000823471F1853409F47BC0803531F182351E
:103B100021F1813511F1853509F48DC0863509F41F
:103B20009DC0843609F4AEC0843709F41BC18537C3
:103B300009F485C1863709F47AC0809103018F5F4B
:103B400080930301853079F6E0910401F09105013D
:103B500009950E94761C803351F60E94F61CC3CF53
:103B600093E18091C00087FFFCCF8091C60099232C
:103B7000A1F39150F6CF0E94761C8032F1F680912D
:103B8000C00085FFFCCFF092C6008091C00085FF89
:103B9000FCCF9092C6008091C00085FFFCCF809240
:103BA000C6008091C00085FFFCCF7092C600809156
:103BB000C00085FFFCCF6092C6008091C00085FFE9
:103BC000FCCF5092C6008091C00085FFFCCF409290
:103BD000C6008091C00085FFFCCF3092C600809166
:103BE000C00085FFFCCFB092C6007DCF0E94761C3E
:103BF000863808F4B2CF0E94761C0E94F61C73CF60
:103C000094E08091C00087FFFCCF8091C60099238B
:103C100009F4A3CF9150F5CF0E94761C8038D1F0E3
:103C2000813861F1823809F499C0883979F080E0EF
:103C30000E94CA1C58CF0E94761C809306010E94E5
:103C4000761C809307010E94F61C4DCF83E00E94F2
:103C5000CA1C49CF82E00E94CA1C45CF0E94761C34
:103C6000803309F486C192E08091C00087FFFCCFC9
:103C70008091C6009923D9F29150F6CF81E00E943D
:103C8000CA1C31CF0E94761C809309020E94761CC8
:103C90008093080280910C028E7F80930C020E9418
:103CA000761C853429F480910C02816080930C028B
:103CB0008091080290910902892B89F000E010E0C0
:103CC0000E94761CF801E85FFE4F80830F5F1F4F54
:103CD00080910802909109020817190788F30E9441
:103CE000761C803209F029CF80910C0280FFD1C070
:103CF0004091060150910701440F551F5093070151
:103D000040930601A0910802B09109021097C9F0F2
:103D1000E8E0F1E09A01BD016E0F7F1FF999FECF37
:103D200032BD21BD819180BDFA9AF99A2F5F3F4F34
:103D3000E617F70799F74A0F5B1F50930701409367
:103D400006018091C00085FFFCCFF092C6008091F3
:103D5000C00085FFFCCFB092C600C5CE80E10E94B6
:103D6000CA1CC1CE0E94761C809309020E94761C58
:103D7000809308028091060190910701880F991F96
:103D800090930701809306010E94761C853409F404
:103D90007AC080910C028E7F80930C020E94761C68
:103DA000803209F0A0CE8091C00085FFFCCFF09258
:103DB000C600A0910802B09109021097B9F1809154
:103DC0000C02182F1170082F0270E0910601F0917B
:103DD00007019F012F5F3F4FB90140E050E01123E1
:103DE000B1F4002339F494918091C00085FFFCCF99
:103DF0009093C6004F5F5F4FCB010196F9014A17C0
:103E00005B0780F4BC012F5F3F4F112351F3F999F9
:103E1000FECFF2BDE1BDF89A90B58091C00085FF5C
:103E2000FCCFE6CF70930701609306018091C0003C
:103E300085FDD9CE8091C00085FFF8CFD4CE0E94F9
:103E4000761C803209F079CE8091C00085FFFCCFCE
:103E5000F092C6008091C00085FFFCCFE092C600C2
:103E60008091C00085FFFCCFD092C6008091C00039
:103E700085FFFCCFC092C6008091C00085FFFCCFBB
:103E8000B092C60030CE80910C02816080930C020B
:103E900085CF809107018823880F880B8A21809322
:103EA0000B028091060190910701880F991F909352
:103EB0000701809306018091080280FF09C080916C
:103EC00008029091090201969093090280930802DA
:103ED000F894F999FECF1127E0910601F0910701BE
:103EE000C8E0D1E08091080290910902103091F46D
:103EF0000091570001700130D9F303E0009357009F
:103F0000E8950091570001700130D9F301E1009369
:103F10005700E89509901990009157000170013001
:103F2000D9F301E000935700E8951395103498F009
:103F300011270091570001700130D9F305E000937B
:103F40005700E8950091570001700130D9F301E165
:103F500000935700E8953296029709F0C7CF1030CA
:103F600011F00296E5CF11248091C00085FFE9CEC3
:103F7000ECCE0E94761C0E94761C182F0E94761CA4
:103F8000112351F0113021F086E00E94CA1CABCD04
:103F900084E90E94CA1CA7CD8EE10E94CA1CA3CD51
:043FA000F894FFCFC3
:023FA40080009B
:0400000300003800C1
:00000001FF
